{
  "_format": "hh-sol-artifact-1",
  "contractName": "BlockchainAid",
  "sourceName": "contracts/BlockchainAid.sol",
  "abi": [
    {
      "inputs": [
        {
          "internalType": "string",
          "name": "projectTitle",
          "type": "string"
        },
        {
          "internalType": "string",
          "name": "projectDesc",
          "type": "string"
        },
        {
          "internalType": "uint256",
          "name": "minimumContribution",
          "type": "uint256"
        },
        {
          "internalType": "uint256",
          "name": "targetContribution",
          "type": "uint256"
        },
        {
          "internalType": "uint256",
          "name": "deadline",
          "type": "uint256"
        },
        {
          "internalType": "string",
          "name": "bannerUrl",
          "type": "string"
        }
      ],
      "name": "createCampaign",
      "outputs": [],
      "stateMutability": "nonpayable",
      "type": "function"
    },
    {
      "inputs": [],
      "name": "returnDeployedCampaigns",
      "outputs": [
        {
          "internalType": "contract Campaign[]",
          "name": "",
          "type": "address[]"
        }
      ],
      "stateMutability": "view",
      "type": "function"
    }
  ],
  "bytecode": "0x608060405234801561001057600080fd5b506136e2806100206000396000f3fe60806040523480156200001157600080fd5b50600436106200003a5760003560e01c80636b047df4146200003f578063e327e214146200005f575b600080fd5b6200005d600480360381019062000057919062000385565b62000081565b005b6200006962000136565b604051620000789190620005c6565b60405180910390f35b6000338584868a8a876040516200009890620001c6565b620000aa9796959493929190620006a9565b604051809103906000f080158015620000c7573d6000803e3d6000fd5b5090506000819080600181540180825580915050600190039060005260206000200160009091909190916101000a81548173ffffffffffffffffffffffffffffffffffffffff021916908373ffffffffffffffffffffffffffffffffffffffff16021790555050505050505050565b60606000805480602002602001604051908101604052809291908181526020018280548015620001bc57602002820191906000526020600020905b8160009054906101000a900473ffffffffffffffffffffffffffffffffffffffff1673ffffffffffffffffffffffffffffffffffffffff168152602001906001019080831162000171575b5050505050905090565b612f71806200073c83390190565b6000604051905090565b600080fd5b600080fd5b600080fd5b600080fd5b6000601f19601f8301169050919050565b7f4e487b7100000000000000000000000000000000000000000000000000000000600052604160045260246000fd5b6200023d82620001f2565b810181811067ffffffffffffffff821117156200025f576200025e62000203565b5b80604052505050565b600062000274620001d4565b905062000282828262000232565b919050565b600067ffffffffffffffff821115620002a557620002a462000203565b5b620002b082620001f2565b9050602081019050919050565b82818337600083830152505050565b6000620002e3620002dd8462000287565b62000268565b905082815260208101848484011115620003025762000301620001ed565b5b6200030f848285620002bd565b509392505050565b600082601f8301126200032f576200032e620001e8565b5b813562000341848260208601620002cc565b91505092915050565b6000819050919050565b6200035f816200034a565b81146200036b57600080fd5b50565b6000813590506200037f8162000354565b92915050565b60008060008060008060c08789031215620003a557620003a4620001de565b5b600087013567ffffffffffffffff811115620003c657620003c5620001e3565b5b620003d489828a0162000317565b965050602087013567ffffffffffffffff811115620003f857620003f7620001e3565b5b6200040689828a0162000317565b95505060406200041989828a016200036e565b94505060606200042c89828a016200036e565b93505060806200043f89828a016200036e565b92505060a087013567ffffffffffffffff811115620004635762000462620001e3565b5b6200047189828a0162000317565b9150509295509295509295565b600081519050919050565b600082825260208201905092915050565b6000819050602082019050919050565b600073ffffffffffffffffffffffffffffffffffffffff82169050919050565b6000819050919050565b6000620004f5620004ef620004e984620004aa565b620004ca565b620004aa565b9050919050565b60006200050982620004d4565b9050919050565b60006200051d82620004fc565b9050919050565b6200052f8162000510565b82525050565b600062000543838362000524565b60208301905092915050565b6000602082019050919050565b600062000569826200047e565b62000575818562000489565b935062000582836200049a565b8060005b83811015620005b95781516200059d888262000535565b9750620005aa836200054f565b92505060018101905062000586565b5085935050505092915050565b60006020820190508181036000830152620005e281846200055c565b905092915050565b6000620005f782620004aa565b9050919050565b6200060981620005ea565b82525050565b6200061a816200034a565b82525050565b600081519050919050565b600082825260208201905092915050565b60005b838110156200065c5780820151818401526020810190506200063f565b60008484015250505050565b6000620006758262000620565b6200068181856200062b565b9350620006938185602086016200063c565b6200069e81620001f2565b840191505092915050565b600060e082019050620006c0600083018a620005fe565b620006cf60208301896200060f565b620006de60408301886200060f565b620006ed60608301876200060f565b818103608083015262000701818662000668565b905081810360a083015262000717818562000668565b905081810360c08301526200072d818462000668565b90509897505050505050505056fe60806040523480156200001157600080fd5b5060405162002f7138038062002f71833981810160405281019062000037919062000338565b866000806101000a81548173ffffffffffffffffffffffffffffffffffffffff021916908373ffffffffffffffffffffffffffffffffffffffff16021790555085600181905550846002819055508360038190555082600790816200009d919062000689565b508160089081620000af919062000689565b5060006005819055508060099081620000c9919062000689565b506000600a60006101000a81548160ff02191690836003811115620000f357620000f262000770565b5b0217905550505050505050506200079f565b6000604051905090565b600080fd5b600080fd5b600073ffffffffffffffffffffffffffffffffffffffff82169050919050565b6000620001468262000119565b9050919050565b620001588162000139565b81146200016457600080fd5b50565b60008151905062000178816200014d565b92915050565b6000819050919050565b62000193816200017e565b81146200019f57600080fd5b50565b600081519050620001b38162000188565b92915050565b600080fd5b600080fd5b6000601f19601f8301169050919050565b7f4e487b7100000000000000000000000000000000000000000000000000000000600052604160045260246000fd5b6200020e82620001c3565b810181811067ffffffffffffffff8211171562000230576200022f620001d4565b5b80604052505050565b60006200024562000105565b905062000253828262000203565b919050565b600067ffffffffffffffff821115620002765762000275620001d4565b5b6200028182620001c3565b9050602081019050919050565b60005b83811015620002ae57808201518184015260208101905062000291565b60008484015250505050565b6000620002d1620002cb8462000258565b62000239565b905082815260208101848484011115620002f057620002ef620001be565b5b620002fd8482856200028e565b509392505050565b600082601f8301126200031d576200031c620001b9565b5b81516200032f848260208601620002ba565b91505092915050565b600080600080600080600060e0888a0312156200035a57620003596200010f565b5b60006200036a8a828b0162000167565b97505060206200037d8a828b01620001a2565b9650506040620003908a828b01620001a2565b9550506060620003a38a828b01620001a2565b945050608088015167ffffffffffffffff811115620003c757620003c662000114565b5b620003d58a828b0162000305565b93505060a088015167ffffffffffffffff811115620003f957620003f862000114565b5b620004078a828b0162000305565b92505060c088015167ffffffffffffffff8111156200042b576200042a62000114565b5b620004398a828b0162000305565b91505092959891949750929550565b600081519050919050565b7f4e487b7100000000000000000000000000000000000000000000000000000000600052602260045260246000fd5b600060028204905060018216806200049b57607f821691505b602082108103620004b157620004b062000453565b5b50919050565b60008190508160005260206000209050919050565b60006020601f8301049050919050565b600082821b905092915050565b6000600883026200051b7fffffffffffffffffffffffffffffffffffffffffffffffffffffffffffffffff82620004dc565b620005278683620004dc565b95508019841693508086168417925050509392505050565b6000819050919050565b60006200056a620005646200055e846200017e565b6200053f565b6200017e565b9050919050565b6000819050919050565b620005868362000549565b6200059e620005958262000571565b848454620004e9565b825550505050565b600090565b620005b5620005a6565b620005c28184846200057b565b505050565b5b81811015620005ea57620005de600082620005ab565b600181019050620005c8565b5050565b601f82111562000639576200060381620004b7565b6200060e84620004cc565b810160208510156200061e578190505b620006366200062d85620004cc565b830182620005c7565b50505b505050565b600082821c905092915050565b60006200065e600019846008026200063e565b1980831691505092915050565b60006200067983836200064b565b9150826002028217905092915050565b620006948262000448565b67ffffffffffffffff811115620006b057620006af620001d4565b5b620006bc825462000482565b620006c9828285620005ee565b600060209050601f831160018114620007015760008415620006ec578287015190505b620006f885826200066b565b86555062000768565b601f1984166200071186620004b7565b60005b828110156200073b5784890151825560018201915060208501945060208101905062000714565b868310156200075b578489015162000757601f8916826200064b565b8355505b6001600288020188555050505b505050505050565b7f4e487b7100000000000000000000000000000000000000000000000000000000600052602160045260246000fd5b6127c280620007af6000396000f3fe60806040526004361061012a5760003560e01c80638d27289e116100ab578063b82c86d61161006f578063b82c86d614610379578063b84f3197146103a4578063c19d93fb146103e4578063c3e20c9f1461040f578063c59ee1dc1461043a578063d7bb99ba146104655761012a565b80638d27289e146102ba578063937e09b1146102c45780639d43b9b5146102ef5780639ee679e81461031a578063a00c96d7146103435761012a565b80633d0300bd116100f25780633d0300bd146102045780634e260f6f1461020e5780636f9fb98a146102395780637a9a80551461026457806382fde0931461028f5761012a565b806302d05d3f1461012f57806303c29d581461015a5780630a1443911461018557806329dcb0cf146101c25780632c8b8bb3146101ed575b600080fd5b34801561013b57600080fd5b5061014461046f565b6040516101519190611a73565b60405180910390f35b34801561016657600080fd5b5061016f610493565b60405161017c9190611b1e565b60405180910390f35b34801561019157600080fd5b506101ac60048036038101906101a79190611b83565b610521565b6040516101b99190611bcb565b60405180910390f35b3480156101ce57600080fd5b506101d7610541565b6040516101e49190611bff565b60405180910390f35b3480156101f957600080fd5b50610202610547565b005b61020c610931565b005b34801561021a57600080fd5b50610223610b0d565b6040516102309190611bff565b60405180910390f35b34801561024557600080fd5b5061024e610b13565b60405161025b9190611bff565b60405180910390f35b34801561027057600080fd5b50610279610b1b565b6040516102869190611b1e565b60405180910390f35b34801561029b57600080fd5b506102a4610ba9565b6040516102b19190611bff565b60405180910390f35b6102c2610baf565b005b3480156102d057600080fd5b506102d9610e82565b6040516102e69190611bff565b60405180910390f35b3480156102fb57600080fd5b50610304610e88565b6040516103119190611bff565b60405180910390f35b34801561032657600080fd5b50610341600480360381019061033c9190611c46565b610e8e565b005b34801561034f57600080fd5b506103586112d5565b6040516103709c9b9a99989796959493929190611cea565b60405180910390f35b34801561038557600080fd5b5061038e6114f4565b60405161039b9190611bff565b60405180910390f35b3480156103b057600080fd5b506103cb60048036038101906103c69190611db9565b6114fa565b6040516103db9493929190611e08565b60405180910390f35b3480156103f057600080fd5b506103f9611564565b6040516104069190611e4d565b60405180910390f35b34801561041b57600080fd5b50610424611577565b6040516104319190611b1e565b60405180910390f35b34801561044657600080fd5b5061044f611605565b60405161045c9190611bff565b60405180910390f35b61046d61160b565b005b60008054906101000a900473ffffffffffffffffffffffffffffffffffffffff1681565b600880546104a090611e97565b80601f01602080910402602001604051908101604052809291908181526020018280546104cc90611e97565b80156105195780601f106104ee57610100808354040283529160200191610519565b820191906000526020600020905b8154815290600101906020018083116104fc57829003601f168201915b505050505081565b600b6020528060005260406000206000915054906101000a900460ff1681565b60025481565b6000600e60008060009054906101000a900473ffffffffffffffffffffffffffffffffffffffff1673ffffffffffffffffffffffffffffffffffffffff1673ffffffffffffffffffffffffffffffffffffffff16815260200190815260200160002060003073ffffffffffffffffffffffffffffffffffffffff1673ffffffffffffffffffffffffffffffffffffffff1681526020019081526020016000209050600073ffffffffffffffffffffffffffffffffffffffff168160000160009054906101000a900473ffffffffffffffffffffffffffffffffffffffff1673ffffffffffffffffffffffffffffffffffffffff160361067b576040517f08c379a000000000000000000000000000000000000000000000000000000000815260040161067290611f14565b60405180910390fd5b8060030160003373ffffffffffffffffffffffffffffffffffffffff1673ffffffffffffffffffffffffffffffffffffffff16815260200190815260200160002060009054906101000a900460ff161561070a576040517f08c379a000000000000000000000000000000000000000000000000000000000815260040161070190611f80565b60405180910390fd5b8060040160009054906101000a900460ff161561075c576040517f08c379a000000000000000000000000000000000000000000000000000000000815260040161075390612012565b60405180910390fd5b600b60003373ffffffffffffffffffffffffffffffffffffffff1673ffffffffffffffffffffffffffffffffffffffff16815260200190815260200160002060009054906101000a900460ff166107e8576040517f08c379a00000000000000000000000000000000000000000000000000000000081526004016107df9061207e565b60405180910390fd5b60018160030160003373ffffffffffffffffffffffffffffffffffffffff1673ffffffffffffffffffffffffffffffffffffffff16815260200190815260200160002060006101000a81548160ff021916908315150217905550806002016000815480929190610857906120cd565b9190505550600260065461086b9190612144565b8160020154111561092e5760018160040160006101000a81548160ff0219169083151502179055508060000160009054906101000a900473ffffffffffffffffffffffffffffffffffffffff1673ffffffffffffffffffffffffffffffffffffffff166108fc82600101549081150290604051600060405180830381858888f19350505050158015610901573d6000803e3d6000fd5b506002600a60006101000a81548160ff0219169083600381111561092857610927611c73565b5b02179055505b50565b60008054906101000a900473ffffffffffffffffffffffffffffffffffffffff1673ffffffffffffffffffffffffffffffffffffffff163373ffffffffffffffffffffffffffffffffffffffff16146109bf576040517f08c379a00000000000000000000000000000000000000000000000000000000081526004016109b6906121e7565b60405180910390fd5b600160038111156109d3576109d2611c73565b5b600a60009054906101000a900460ff1660038111156109f5576109f4611c73565b5b14610a35576040517f08c379a0000000000000000000000000000000000000000000000000000000008152600401610a2c9061229f565b60405180910390fd5b6002544210610a79576040517f08c379a0000000000000000000000000000000000000000000000000000000008152600401610a7090612331565b60405180910390fd5b60008054906101000a900473ffffffffffffffffffffffffffffffffffffffff1673ffffffffffffffffffffffffffffffffffffffff166108fc479081150290604051600060405180830381858888f19350505050158015610adf573d6000803e3d6000fd5b506002600a60006101000a81548160ff02191690836003811115610b0657610b05611c73565b5b0217905550565b60065481565b600047905090565b60098054610b2890611e97565b80601f0160208091040260200160405190810160405280929190818152602001828054610b5490611e97565b8015610ba15780601f10610b7657610100808354040283529160200191610ba1565b820191906000526020600020905b815481529060010190602001808311610b8457829003601f168201915b505050505081565b600c5481565b60008054906101000a900473ffffffffffffffffffffffffffffffffffffffff1673ffffffffffffffffffffffffffffffffffffffff163373ffffffffffffffffffffffffffffffffffffffff1614610c3d576040517f08c379a0000000000000000000000000000000000000000000000000000000008152600401610c34906121e7565b60405180910390fd5b6002544210610c81576040517f08c379a0000000000000000000000000000000000000000000000000000000008152600401610c78906123c3565b60405180910390fd5b60006003811115610c9557610c94611c73565b5b600a60009054906101000a900460ff166003811115610cb757610cb6611c73565b5b1480610cf6575060016003811115610cd257610cd1611c73565b5b600a60009054906101000a900460ff166003811115610cf457610cf3611c73565b5b145b610d35576040517f08c379a0000000000000000000000000000000000000000000000000000000008152600401610d2c90612455565b60405180910390fd5b60005b600654811015610e5457600d8181548110610d5657610d55612475565b5b906000526020600020906002020160000160009054906101000a900473ffffffffffffffffffffffffffffffffffffffff1673ffffffffffffffffffffffffffffffffffffffff166108fc600d8381548110610db557610db4612475565b5b9060005260206000209060020201600101549081150290604051600060405180830381858888f19350505050158015610df2573d6000803e3d6000fd5b50600d8181548110610e0757610e06612475565b5b9060005260206000209060020201600080820160006101000a81549073ffffffffffffffffffffffffffffffffffffffff0219169055600182016000905550508080600101915050610d38565b506003600a60006101000a81548160ff02191690836003811115610e7b57610e7a611c73565b5b0217905550565b60015481565b60045481565b60008054906101000a900473ffffffffffffffffffffffffffffffffffffffff1673ffffffffffffffffffffffffffffffffffffffff163373ffffffffffffffffffffffffffffffffffffffff1614610f1c576040517f08c379a0000000000000000000000000000000000000000000000000000000008152600401610f13906121e7565b60405180910390fd5b600073ffffffffffffffffffffffffffffffffffffffff16600e60003373ffffffffffffffffffffffffffffffffffffffff1673ffffffffffffffffffffffffffffffffffffffff16815260200190815260200160002060003073ffffffffffffffffffffffffffffffffffffffff1673ffffffffffffffffffffffffffffffffffffffff16815260200190815260200160002060000160009054906101000a900473ffffffffffffffffffffffffffffffffffffffff1673ffffffffffffffffffffffffffffffffffffffff161461102a576040517f08c379a000000000000000000000000000000000000000000000000000000000815260040161102190612516565b60405180910390fd5b4781111561106d576040517f08c379a0000000000000000000000000000000000000000000000000000000008152600401611064906125a8565b60405180910390fd5b600030905033600e60003373ffffffffffffffffffffffffffffffffffffffff1673ffffffffffffffffffffffffffffffffffffffff16815260200190815260200160002060008373ffffffffffffffffffffffffffffffffffffffff1673ffffffffffffffffffffffffffffffffffffffff16815260200190815260200160002060000160006101000a81548173ffffffffffffffffffffffffffffffffffffffff021916908373ffffffffffffffffffffffffffffffffffffffff16021790555081600e60003373ffffffffffffffffffffffffffffffffffffffff1673ffffffffffffffffffffffffffffffffffffffff16815260200190815260200160002060008373ffffffffffffffffffffffffffffffffffffffff1673ffffffffffffffffffffffffffffffffffffffff168152602001908152602001600020600101819055506000600e60003373ffffffffffffffffffffffffffffffffffffffff1673ffffffffffffffffffffffffffffffffffffffff16815260200190815260200160002060008373ffffffffffffffffffffffffffffffffffffffff1673ffffffffffffffffffffffffffffffffffffffff168152602001908152602001600020600201819055506000600e60003373ffffffffffffffffffffffffffffffffffffffff1673ffffffffffffffffffffffffffffffffffffffff16815260200190815260200160002060008373ffffffffffffffffffffffffffffffffffffffff1673ffffffffffffffffffffffffffffffffffffffff16815260200190815260200160002060040160006101000a81548160ff0219169083151502179055505050565b600080600080600080606080600080606060008060009054906101000a900473ffffffffffffffffffffffffffffffffffffffff169b506001549a5060025499506003549850600454975060055496506007805461133290611e97565b80601f016020809104026020016040519081016040528092919081815260200182805461135e90611e97565b80156113ab5780601f10611380576101008083540402835291602001916113ab565b820191906000526020600020905b81548152906001019060200180831161138e57829003601f168201915b50505050509550600880546113bf90611e97565b80601f01602080910402602001604051908101604052809291908181526020018280546113eb90611e97565b80156114385780601f1061140d57610100808354040283529160200191611438565b820191906000526020600020905b81548152906001019060200180831161141b57829003601f168201915b50505050509450600a60009054906101000a900460ff1693504792506009805461146190611e97565b80601f016020809104026020016040519081016040528092919081815260200182805461148d90611e97565b80156114da5780601f106114af576101008083540402835291602001916114da565b820191906000526020600020905b8154815290600101906020018083116114bd57829003601f168201915b505050505091506006549050909192939495969798999a9b565b60035481565b600e602052816000526040600020602052806000526040600020600091509150508060000160009054906101000a900473ffffffffffffffffffffffffffffffffffffffff16908060010154908060020154908060040160009054906101000a900460ff16905084565b600a60009054906101000a900460ff1681565b6007805461158490611e97565b80601f01602080910402602001604051908101604052809291908181526020018280546115b090611e97565b80156115fd5780601f106115d2576101008083540402835291602001916115fd565b820191906000526020600020905b8154815290600101906020018083116115e057829003601f168201915b505050505081565b60055481565b6000600381111561161f5761161e611c73565b5b600a60009054906101000a900460ff16600381111561164157611640611c73565b5b148061168057506001600381111561165c5761165b611c73565b5b600a60009054906101000a900460ff16600381111561167e5761167d611c73565b5b145b6116bf576040517f08c379a00000000000000000000000000000000000000000000000000000000081526004016116b690612614565b60405180910390fd5b6002544210611703576040517f08c379a00000000000000000000000000000000000000000000000000000000081526004016116fa906126cc565b60405180910390fd5b600154341015611748576040517f08c379a000000000000000000000000000000000000000000000000000000000815260040161173f90612738565b60405180910390fd5b6000339050600061175882611919565b90507fffffffffffffffffffffffffffffffffffffffffffffffffffffffffffffffff81036118b75760066000815480929190611794906120cd565b9190505550600d60405180604001604052808473ffffffffffffffffffffffffffffffffffffffff16815260200134815250908060018154018082558091505060019003906000526020600020906002020160009091909190915060008201518160000160006101000a81548173ffffffffffffffffffffffffffffffffffffffff021916908373ffffffffffffffffffffffffffffffffffffffff1602179055506020820151816001015550506001600b60003373ffffffffffffffffffffffffffffffffffffffff1673ffffffffffffffffffffffffffffffffffffffff16815260200190815260200160002060006101000a81548160ff021916908315150217905550600c60008154809291906118ad906120cd565b91905055506118f4565b34600d82815481106118cc576118cb612475565b5b906000526020600020906002020160010160008282546118ec9190612758565b925050819055505b34600560008282546119069190612758565b925050819055506119156119e3565b5050565b6000807fffffffffffffffffffffffffffffffffffffffffffffffffffffffffffffffff905060005b6006548112156119d957600d81815481106119605761195f612475565b5b906000526020600020906002020160000160009054906101000a900473ffffffffffffffffffffffffffffffffffffffff1673ffffffffffffffffffffffffffffffffffffffff168473ffffffffffffffffffffffffffffffffffffffff16036119cc578091506119d9565b8080600101915050611942565b5080915050919050565b600354600554101580156119f8575060025442105b15611a30576001600a60006101000a81548160ff02191690836003811115611a2357611a22611c73565b5b0217905550426004819055505b565b600073ffffffffffffffffffffffffffffffffffffffff82169050919050565b6000611a5d82611a32565b9050919050565b611a6d81611a52565b82525050565b6000602082019050611a886000830184611a64565b92915050565b600081519050919050565b600082825260208201905092915050565b60005b83811015611ac8578082015181840152602081019050611aad565b60008484015250505050565b6000601f19601f8301169050919050565b6000611af082611a8e565b611afa8185611a99565b9350611b0a818560208601611aaa565b611b1381611ad4565b840191505092915050565b60006020820190508181036000830152611b388184611ae5565b905092915050565b600080fd5b6000611b5082611a32565b9050919050565b611b6081611b45565b8114611b6b57600080fd5b50565b600081359050611b7d81611b57565b92915050565b600060208284031215611b9957611b98611b40565b5b6000611ba784828501611b6e565b91505092915050565b60008115159050919050565b611bc581611bb0565b82525050565b6000602082019050611be06000830184611bbc565b92915050565b6000819050919050565b611bf981611be6565b82525050565b6000602082019050611c146000830184611bf0565b92915050565b611c2381611be6565b8114611c2e57600080fd5b50565b600081359050611c4081611c1a565b92915050565b600060208284031215611c5c57611c5b611b40565b5b6000611c6a84828501611c31565b91505092915050565b7f4e487b7100000000000000000000000000000000000000000000000000000000600052602160045260246000fd5b60048110611cb357611cb2611c73565b5b50565b6000819050611cc482611ca2565b919050565b6000611cd482611cb6565b9050919050565b611ce481611cc9565b82525050565b600061018082019050611d00600083018f611a64565b611d0d602083018e611bf0565b611d1a604083018d611bf0565b611d27606083018c611bf0565b611d34608083018b611bf0565b611d4160a083018a611bf0565b81810360c0830152611d538189611ae5565b905081810360e0830152611d678188611ae5565b9050611d77610100830187611cdb565b611d85610120830186611bf0565b818103610140830152611d988185611ae5565b9050611da8610160830184611bf0565b9d9c50505050505050505050505050565b60008060408385031215611dd057611dcf611b40565b5b6000611dde85828601611b6e565b9250506020611def85828601611b6e565b9150509250929050565b611e0281611b45565b82525050565b6000608082019050611e1d6000830187611df9565b611e2a6020830186611bf0565b611e376040830185611bf0565b611e446060830184611bbc565b95945050505050565b6000602082019050611e626000830184611cdb565b92915050565b7f4e487b7100000000000000000000000000000000000000000000000000000000600052602260045260246000fd5b60006002820490506001821680611eaf57607f821691505b602082108103611ec257611ec1611e68565b5b50919050565b7f4e6f207769746864726177616c207265717565737420666f756e640000000000600082015250565b6000611efe601b83611a99565b9150611f0982611ec8565b602082019050919050565b60006020820190508181036000830152611f2d81611ef1565b9050919050565b7f416c726561647920617070726f76656400000000000000000000000000000000600082015250565b6000611f6a601083611a99565b9150611f7582611f34565b602082019050919050565b60006020820190508181036000830152611f9981611f5d565b9050919050565b7f5769746864726177616c207265717565737420616c726561647920636f6d706c60008201527f6574656400000000000000000000000000000000000000000000000000000000602082015250565b6000611ffc602483611a99565b915061200782611fa0565b604082019050919050565b6000602082019050818103600083015261202b81611fef565b9050919050565b7f4e6f74206120636f6e747269626f72207468656e204e6f205269676874730000600082015250565b6000612068601e83611a99565b915061207382612032565b602082019050919050565b600060208201905081810360008301526120978161205b565b9050919050565b7f4e487b7100000000000000000000000000000000000000000000000000000000600052601160045260246000fd5b60006120d882611be6565b91507fffffffffffffffffffffffffffffffffffffffffffffffffffffffffffffffff820361210a5761210961209e565b5b600182019050919050565b7f4e487b7100000000000000000000000000000000000000000000000000000000600052601260045260246000fd5b600061214f82611be6565b915061215a83611be6565b92508261216a57612169612115565b5b828204905092915050565b7f596f7520646f6e7420686176652061636365737320746f20706572666f726d2060008201527f74686973206f7065726174696f6e202100000000000000000000000000000000602082015250565b60006121d1603083611a99565b91506121dc82612175565b604082019050919050565b60006020820190508181036000830152612200816121c4565b9050919050565b7f476f616c206e6f7420726561636865642c20616d6f756e742063616e6e6f742060008201527f62652077697468647261776e2e20506c656173652061626f727420746f20726560208201527f66756e6420746f206261636b6572730000000000000000000000000000000000604082015250565b6000612289604f83611a99565b915061229482612207565b606082019050919050565b600060208201905081810360008301526122b88161227c565b9050919050565b7f43616d706169676e2063616e6e6f7420626520656e6465642c20646561646c6960008201527f6e65206e6f7420726561636865642e0000000000000000000000000000000000602082015250565b600061231b602f83611a99565b9150612326826122bf565b604082019050919050565b6000602082019050818103600083015261234a8161230e565b9050919050565b7f43616d706169676e2063616e6e6f742062652061626f727465642c206465616460008201527f6c696e65207061737365642e0000000000000000000000000000000000000000602082015250565b60006123ad602c83611a99565b91506123b882612351565b604082019050919050565b600060208201905081810360008301526123dc816123a0565b9050919050565b7f496e76616c69642073746174652e2043616e6e6f742061626f72742063616d7060008201527f6169676e2e000000000000000000000000000000000000000000000000000000602082015250565b600061243f602583611a99565b915061244a826123e3565b604082019050919050565b6000602082019050818103600083015261246e81612432565b9050919050565b7f4e487b7100000000000000000000000000000000000000000000000000000000600052603260045260246000fd5b7f5769746864726177616c207265717565737420616c726561647920657869737460008201527f7300000000000000000000000000000000000000000000000000000000000000602082015250565b6000612500602183611a99565b915061250b826124a4565b604082019050919050565b6000602082019050818103600083015261252f816124f3565b9050919050565b7f616d6f756e742073686f756c64206e6f742065786365656420617661696c616260008201527f6c652066756e6473000000000000000000000000000000000000000000000000602082015250565b6000612592602883611a99565b915061259d82612536565b604082019050919050565b600060208201905081810360008301526125c181612585565b9050919050565b7f496e76616c696420737461746500000000000000000000000000000000000000600082015250565b60006125fe600d83611a99565b9150612609826125c8565b602082019050919050565b6000602082019050818103600083015261262d816125f1565b9050919050565b7f536f72727920436f6e7472696275746f722c20646561646c696e65206861732060008201527f70617373656421204e6f20636f6e747269627574696f6e732063616e2062652060208201527f6163636570746564206e6f772e00000000000000000000000000000000000000604082015250565b60006126b6604d83611a99565b91506126c182612634565b606082019050919050565b600060208201905081810360008301526126e5816126a9565b9050919050565b7f436f6e747269627574696f6e20616d6f756e7420697320746f6f206c6f772021600082015250565b6000612722602083611a99565b915061272d826126ec565b602082019050919050565b6000602082019050818103600083015261275181612715565b9050919050565b600061276382611be6565b915061276e83611be6565b92508282019050808211156127865761278561209e565b5b9291505056fea264697066735822122084b34f3f209f624ee61bc87f7df1717a01469a3b3066cefac988cbd95e170b1164736f6c63430008180033a264697066735822122063b88008b87a37cfb22de7f1b73cd970bae13df5841ed7bd56c3ce7b8e38b39264736f6c63430008180033",
  "linkReferences": {},
  "deployedLinkReferences": {}
}